S0090000652E73726563B6
S11300000C9434000C9449000C9449000C9449005D
S11300100C9449000C9449000C9449000C94490038
S11300200C9449000C9449000C9449000C94490028
S11300300C9449000C9449000C9449000C94490018
S11300400C9449000C9449000C9449000C94490008
S11300500C9449000C9449000C9449000C944900F8
S11300600C9449000C94490011241FBECFEFD8E032
S1130070DEBFCDBF11E0A0E0B1E0E2EDF1E002C0EF
S113008005900D92A031B107D9F70E946F000C942E
S1130090E7000C94000088E18093C10086E080931F
S11300A0C20087E68093C40083E284BD8CE085BDF2
S11300B08DE787BD8EE388BD8FEF8AB90895E0ECA4
S11300C0F0E080818823ECF78091C6000895E0EC8D
S11300D0F0E0908195FFFDCF8093C6000895CF9303
S11300E0DF93CDB7DEB72F970FB6F894DEBF0FBE00
S11300F0CDBF0E944B008FE0E0E0F1E0DE011196FD
S113010001900D928A95E1F7C12CD12C7E0181E1F9
S1130110E80EF11CA12CB12C16C00E945F0090EDDA
S1130120980F9A3080F49601220F331FCC0CDD1CFB
S1130130CC0CDD1CCC0CDD1CC20ED31E90E3C91A02
S1130140D108C80ED11CEAE0CE16D10430F38E01DA
S11301500F5F1F4FF80181918F010E9467000E15F8
S11301601F05C1F79601ADECBCEC0E94D8008C01D0
S113017016950795169507951695079580E3800FB4
S11301800E946700C801880F991F000F111F000FFC
S1130190111F000F111F080F191FC601801B910B9F
S11301A0805D0E946700CA94C8BCCA2CDB2CCBCFEC
S11301B0A29FB001B39FC001A39F700D811D1124A4
S11301C0911DB29F700D811D1124911D0895F89405
S10501D0FFCF5B
S11301D220496E7075742076616C75653A20000052
S9030000FC
