S01700004763634170706C69636174696F6E312E737265635B
S11300000C9434000C943E000C943E000C943E007E
S11300100C943E000C943E000C943E000C943E0064
S11300200C943E000C943E000C943E000C943E0054
S11300300C943E000C943E000C943E000C943E0044
S11300400C943E000C943E000C943E000C943E0034
S11300500C943E000C943E000C943E000C943E0024
S11300600C943E000C943E0011241FBECFEFD8E048
S1130070DEBFCDBF0E9474000C9499000C94000064
S1130080E0ECF0E0908195FFFDCF8093C6000895E9
S113009083EA84BD8BE085BD8AEF87BD8DE788BD8B
S11300A008951092800083E48093810080E286BBEF
S11300B0089588E18093C10086E08093C20087E6BA
S11300C08093C4000895B59BFECF9091860080E292
S11300D086BB84E080938100B59BFECF809186002F
S11300E020E226BB891B08950E9448000E9451000B
S11300F00E94590014B880E28AB91DEC0E94630082
S1130100D82F819FC12D1124C695C695C69580E32D
S11301108C0F0E944000CC0F8C2F880F880FC80FC3
S11301208D2F8C1B805D0E94400080E20E94400065
S1090130E5CFF894FFCFB7
S9030000FC
