S00D000046544151312E73726563BA
S11300000C9434000C9449000C9449000C9449005D
S11300100C9449000C9449000C9449000C94490038
S11300200C9449000C9449000C9449000C945C0015
S11300300C9449000C9449000C9449000C94490018
S11300400C9449000C9449000C9449000C94490008
S11300500C9449000C9449000C9449000C944900F8
S11300600C9449000C94490011241FBECFEFD8E032
S1130070DEBFCDBF11E0A0E0B1E0E2E4F1E002C0F8
S113008005900D92A230B107D9F70E9473000C9429
S11300909F000C94000084E294EF90938900809375
S11300A088008CE08093810082E080936F00089543
S11300B087B18FEF87B908951F920F920FB60F92F1
S11300C011248F939F9380910001909101010196D7
S11300D090930101809300019F918F910F900FBE27
S11300E00F901F9018950E9458000E944B0078941E
S11300F080910001909101018130910519F48CE007
S113010088B910C08230910519F48AE088B90AC010
S11301108330910519F486E088B904C0049711F47A
S11301208EE088B98091000190910101059701F753
S113013081E090E09093010180930001D9CFF8947D
S1050140FFCFEB
S10501420100B6
S9030000FC
