:100000000C9434000C943E000C943E000C943E0082
:100010000C943E000C943E000C943E000C943E0068
:100020000C943E000C943E000C943E000C943E0058
:100030000C943E000C943E000C943E000C943E0048
:100040000C943E000C943E000C943E000C943E0038
:100050000C943E000C943E000C943E000C943E0028
:100060000C943E000C943E0011241FBECFEFD8E04C
:10007000DEBFCDBF0E94AF000C94EA000C940000DC
:10008000FC0116BC14BC91E095BD40E050E017C0E7
:10009000A89BFECF91E095BB2F5F3F4F02C020E0B1
:1000A00030E02A3688E1380799F76F5F7F4F02C04A
:1000B00060E070E06A30710591F74F5F5F4F4E1757
:1000C0005F07B1F715BC0895FC0197EC97BD92E06E
:1000D00094BD91E095BD40E050E017C0A99BFECFD4
:1000E00092E095BB2F5F3F4F02C020E030E020320E
:1000F00083E0380799F76F5F7F4F02C060E070E0E0
:100100006436710591F74F5F5F4F4E175F07B1F788
:1001100015BC089516BC81E085BD80E090E005C067
:10012000A89BFECF21E025BB01968A3628E19207E5
:10013000B9F715BC0895CF93DF9380E188B9C0E08B
:10014000D0E007C00E948A0098B180E1892788B971
:100150002196CA30D105B1F7DF91CF9108958FE391
:1001600084B980E387B9C0E2C8B98CE085B985E07D
:1001700090E00E944000C8B984E185B981E090E038
:100180000E946400C8B9D4E2D5B981E090E00E9431
:100190006400C8B986E285B981E090E00E94400021
:1001A00081E285B980E188B985E090E00E94400055
:1001B00082E285B90E949B00D5B9C8B981E090E080
:1001C0000E94400084E385B9C8B981E090E00E94B4
:0801D0004000C9CFF894FFCFF5
:00000001FF
