S01700006C616234645F625F726576697365642E7372656334
S11300000C9434000C9451000C9451000C94510045
S11300100C9451000C9451000C9451000C94510018
S11300200C9451000C9451000C9451000C94510008
S11300300C9451000C9451000C9451000C945100F8
S11300400C9451000C9451000C94C1000C94530076
S11300500C9451000C9451000C9451000C945100D8
S11300600C9451000C94510011241FBECFEFD8E022
S1130070DEBFCDBF11E0A0E0B1E0ECE3F2E002C0EE
S113008005900D92A431B107D9F721E0A4E1B1E0C4
S113009001C01D92AE31B207E1F70E940E010C942B
S11300A01C010C9400001F920F920FB60F921124A2
S11300B02F933F938F939F93EF93FF93809113011B
S11300C0882331F180911C0190911D019C012F5FC7
S11300D03F4F30931D0120931C01FC01EB5FFE4F49
S11300E080818093C600E5E0F1E001900020E9F70B
S11300F03197E550F14080911C0190911D01E81762
S1130100F90731F41092130110921D0110921C0191
S11301108091160190911701019741F580911A0180
S113012090911B019C012F5F3F4F30931B01209343
S11301301A01FC01E050FF4F80818093C600E0E08B
S1130140F1E001900020E9F73197E050F14080910F
S11301501A0190911B01E817F90741F410921B0151
S113016010921A011092170110921601FF91EF914B
S11301709F918F913F912F910F900FBE0F901F90E1
S113018018951F920F920FB60F9211242F933F933D
S11301908F939F93809114019091150101969093F0
S11301A01501809314018130910529F48091C600D2
S11301B0809319012AC031E020911901283409F0F3
S11301C030E021E0029709F020E02323D1F0809170
S11301D0C6008093180191E0893609F090E0392334
S11301E039F081E090E090931701809316010DC0DF
S11301F021E030E03093150120931401809319011C
S113020004C010921501109214019F918F913F9197
S11302102F910F900FBE0F901F9018958FEC90E0C8
S11302209093C5008093C40088EB8093C10086E05E
S10F02308093C2007894FFCFF894FFCFB5
S113023C42796521005765204172652052656164DD
S107024C792100010F
S9030113E8
