S00E00007465737432612E73726563C3
S11300000C9434000C9446000C945E000C9446004E
S11300100C9446000C9446000C9446000C94460044
S11300200C9446000C9446000C9446000C94750005
S11300300C9446000C9446000C9446000C94460024
S11300400C9446000C9446000C9446000C94460014
S11300500C9446000C9446000C9446000C94460004
S11300600C9446000C94460011241FBECFEFD8E038
S1130070DEBFCDBF21E0A0E0B1E001C01D92A430FD
S1130080B207E1F70E948C000C94C2000C940000AB
S113009084E294EF90938900809388008CE08093AD
S11300A0810082E080936F00089587B18FEF87B954
S11300B082E08DBB88E08093690008951F920F92BF
S11300C00FB60F9211248F939F9380910201909108
S11300D00301019690930301809302019F918F91F4
S11300E00F900FBE0F901F9018951F920F920FB68E
S11300F00F9211248F939F9380910001909101019D
S1130100019690930101809300019F918F910F902C
S11301100FBE0F901F9018950E94550078940E946E
S113012048008091020190910301892BC9F48091C8
S1130130000190910101892B11F481E088B980912B
S1130140000190910101019709F418B88091000110
S113015090910101029721F4109201011092000183
S11301608091020190910301019709F418B88091DC
S11301700201909103010297A1F6109203011092DB
S10B01800201CFCFF894FFCF78
S9030000FC
