:020000040800F2
:10000000F8060020950100089D0100089F010008E6
:10001000A1010008A3010008A501000800000000DC
:10002000000000000000000000000000A701000820
:10003000A901000800000000AB010008AD010008A4
:10004000AF010008AF010008AF010008AF010008D0
:10005000AF010008AF010008AF010008AF010008C0
:10006000AF010008AF010008AF010008AF010008B0
:10007000AF010008AF010008AF010008AF010008A0
:10008000AF010008AF010008AF010008AF01000890
:10009000AF010008AF010008AF010008AF01000880
:1000A000AF010008AD050008AF010008AF0100086E
:1000B000AF010008AF010008AF010008AF01000860
:1000C000AF010008AF010008AF0100086D0400088F
:1000D000AF010008AF010008DD050008E9050008D0
:1000E000AF010008AF010008AF01000800F002F8FE
:1000F00000F041F80AA090E8000C82448344AAF181
:100100000107DA4501D100F036F8AFF2090EBAE87E
:100110000F0013F0010F18BFFB1A43F0010318473B
:100120004409000064090000103A24BF78C878C16F
:10013000FAD8520724BF30C830C144BF04680C60ED
:10014000704700000023002400250026103A28BF35
:1001500078C1FBD8520728BF30C148BF0B60704739
:10016000642900F07F80002070471FB500F0BAF8C6
:100170001FBD10B510BD00F03EF91146FFF7F5FFA9
:1001800000F01CFC00F05CF903B4FFF7F2FF03BCC5
:1001900000F066F90948804709480047FEE7FEE796
:1001A000FEE7FEE7FEE7FEE7FEE7FEE7FEE7FEE727
:1001B00004480549054A064B70470000BD04000885
:1001C000ED000008F8000020F8060020F8020020EA
:1001D000F80200200FB41CB5074B06AA7B44694601
:1001E0000090059800F0EFF80020694600F0FEF856
:1001F0001CBC5DF814FB00000D0200002DE9F0416D
:100200000E460446002020622046E168884730B34D
:10021000252805D0D4E901219047206A401CF2E747
:10022000E168204600278847050018D0A5F1410065
:10023000192802D820354FF4006732462946204657
:100240002760FFF78DFF40B1012804D0F61D26F08E
:1002500007060836D8E7361DD6E72846DAE7206ACB
:10026000BDE8F0812DE9F0410646002410687529AB
:10027000314616A510D0AFF30080002802DA4042C4
:1002800013A507E031688A0701D512A502E04907E6
:1002900004D511A5012401E0AFF3008000210A225A
:1002A00006F1240709E0B0FBF2FCB0FBF2F302FB1D
:1002B0001C00303078541846491C0028F3D12346DE
:1002C0002A463046BDE8F04100F01EB800000000AC
:1002D0002D0000002B000000200000007047704738
:1002E0007047000070B5064C7C44064D7D4404E028
:1002F0002046016808448047241DAC42F8D170BDF7
:10030000980700009C0700002DE9F0470D4699462C
:100310009246044600F124080168880604D5E06985
:1003200021F01001216000E00120A84201DD471BFF
:1003300000E00027A1697A1902EB0900081AA06100
:100340002078C00602D42046AFF30080002608E0E3
:10035000D4E901211AF806009047206A401C761C57
:1003600020624E45F4DB2078C0060AD52046AFF364
:10037000008006E0D4E9012130209047206A401C2B
:100380002062381EA7F10107F4DC07E0D4E901215F
:1003900018F805009047206A401C2062281EA5F12D
:1003A0000105F3DC2046AFF300802078000602D57B
:1003B0000220BDE8F0870120FBE7000001694A1C2C
:1003C00002610878704700B58FB0CDE90131002196
:1003D000059105497944CDE9031011466846FFF7B8
:1003E0000DFF0FB000BD0000E5FFFFFF0A6802F837
:1003F000010B0A607047754600F02CF8AE46050008
:100400006946534620F00700854618B020B5FFF72F
:10041000CFFEBDE820404FF000064FF000074FF040
:1004200000084FF0000BAC46ACE8C009ACE8C009CE
:10043000ACE8C009ACE8C00921F007018D4670475F
:1004400010B50446AFF300802046BDE81040FFF72A
:100450009BBE000000487047180000207047000055
:1004600001491820ABBEFEE72600020012480188B1
:10047000090610D5818889070DD5C3494A68013A14
:100480004A6002D0FF21018105E00021018101883D
:1004900021F0800101808188C90703D0018980880B
:1004A000800700D47047B8480174016801310160C9
:1004B00001F0070000F0E6B80430014082B0364891
:1004C000364A016841F00101016041681140344A37
:1004D0004160016811400160016821F480210160E0
:1004E000416821F4FE0141604FF41F018160002149
:1004F00001910091016841F480310160016801F4CB
:1005000000310091019901310191009919B90199C6
:10051000B1F5A06FF2D10168890354BF0021012118
:1005200000910099012930D11E490A6842F0100259
:100530000A600A6822F007020A600A6842F00202B2
:100540000A604168416041684160416841F48061EE
:100550004160416821F47C114160416841F4E81137
:100560004160016841F08071016001688901FCD53A
:10057000416821F003014160416841F0020141609E
:10058000416801F00C010829FAD107484FF00061D9
:10059000016002B0704700BF001002400000FFF889
:1005A000FFFFF6FE0020024008ED00E010B50A480B
:1005B000594A04240188B0F80008138823F0010385
:1005C0001380714BC3E90141D860B2F8F40340F0E5
:1005D0008000A2F8F40310BD24000040014800F0A0
:1005E00037B900BF040000201C4800F031B900BF3B
:1005F000B0B5E6480B4A4FF4805140230124C0F8BF
:10060000101413601D4A00F580651472147782F887
:100610003040C2E90A04C2E90051C2E9055344610D
:10062000B0BD00BF140C0140574800F039B900BFFD
:100630003A4840F21A410068B0FBF1F0704700BF41
:10064000064A116829B910605068828942F0800218
:100650008281B1FA81F04009704700BF0C00002090
:10066000B0B5064C064D2046A84704F11400A84733
:1006700004F128002946BDE8B04008477800002072
:1006800029080008B0B5C8B1072828D1224846F685
:1006900001028189914202D1204900220A60018A27
:1006A00021F4807101824AF61471818546F6700149
:1006B0008181018A41F480610182B0BD1648018ABE
:1006C00021F48061018246F601018181018A41F4B1
:1006D00080710182018821F008010180B0BD0E49BE
:1006E0000A88120717D58B8D4AF6C87200FB0230B4
:1006F0000A4B18608C8D8D8AAC4284BF801A1860BA
:10070000088820F008000880088A20F48070088299
:1007100046F603008881B0BD102C0140CC000020BB
:10072000B0B550B1184C21680D188D4208BFB0BD4E
:10073000204600F0A3F82168F7E71348BDE8B04071
:1007400000F09CB80B4801684A1C0729026009DBCD
:10075000002101600848094900680A6800F48050D7
:10076000824200D170470860002818BF012000F0C5
:1007700037B800BFD000002008080140000000206A
:100780000148007C704700BFB40000200149088088
:10079000704700BF342C014010490A8822F005023E
:1007A0000A800422002818BF01220888104308800C
:1007B000704700BF01490880704700BF382C0140D6
:1007C00006490A8822F050020A801022002818BF29
:1007D0004022088810430880704700BF202C014049
:1007E000F8B1B0B50F4D2868411C0128C8BF0021E1
:1007F00029608C1E18BF42F210742046FFF7C6FF16
:100800002046FFF7D7FF2868002818BF0120FFF710
:10081000C3FF2868002818BF0120BDE8B040FFF7DB
:10082000CFBF7047D4000020017A02290FD3D0E94E
:10083000031201328A42026109D3002114230161AB
:10084000D0E90010CA68104208BF1023C850704792
:1008500041680A8812060CD5026832B113784BB190
:10086000531C0360107888807047888920F08000CE
:1008700088817047002101607047000080B50168E1
:1008800042698A4208BF80BD044A01231360416166
:10089000FFF7E6FEBDE88040FFF754BF08240140A3
:1008A0002DE9F041374941F60C224FF0010C0323AA
:1008B0003D4C3E4D86463E484FF0E06608270A60B4
:1008C000314A80464A603149314A0A60314A4A60B9
:1008D000314AC1F800243149314A0A60314A402185
:1008E000A2F800C093834AF6C773138446F66803E0
:1008F00093814FF4007393824FF40043138740F6C3
:10090000A663238040F23913A4F800340C232B8013
:100910002B88A380066040F23E364762A2F8F813A7
:1009200067234FF00070A2F8F463224EA6F8003857
:10093000B6F8003833804FF480733382338A3382C1
:100940001D4B43F8040C802019604FF08041186063
:100950001F60A08840F40050A080288840F4005018
:100960002880B2F8F40340F04000A2F8F403A6F89F
:10097000F8C7B6F8F80708807046A8F8F0C7BDE8D1
:10098000F08100BF18100240050006000008014079
:10099000424AA4A4AAA4444440444442040C014052
:1009A000444AA2AA0C2C0140084400400C480040D4
:1009B000102401400800004004E100E0214C22A581
:1009C0002820FFF7ADFEFFF7DBFE0646FFF730FEFF
:1009D000024620462946FFF7FDFB30064FF0310066
:1009E00058BF3020607270064FF0310058BF302081
:1009F0002072B0064FF0310058BF3020E071F00691
:100A00004FF0310058BF3020A07130074FF0310057
:100A100058BF3020207170074FF0310058BF302090
:100A2000E070B0074FF0310058BF3020A070F007E1
:100A30004FF0310008BF302060702046FFF700FE05
:100A4000BEE700BFD80000200D30313233203435EE
:100A5000363720202064697374616E63653D2564B8
:100A6000202020008C0A0008000000201400000054
:100A700028010008A00A000818000020E006000075
:100A8000440100086DFBFFFFA1FBFFFF0010000009
:100A9000000000000044004000000000004800404A
:040000050800019559
:00000001FF
