:100000000C9434000C9449000C9449000C94490061
:100010000C9449000C9449000C9449000C9449003C
:100020000C9449000C9449000C9449000C9449002C
:100030000C9449000C9449000C9449000C9449001C
:100040000C9449000C9449000C9449000C9449000C
:100050000C9449000C9449000C9449000C944900FC
:100060000C9449000C94490011241FBECFEFD8E036
:10007000DEBFCDBF11E0A0E0B1E0EEE1F4E002C0F0
:1000800005900D92A431B107D9F70E9467000C9436
:100090000D020C94000088E18093C10086E08093FB
:1000A000C20087E68093C40083E284BD8CE085BDF6
:1000B0008DE787BD8EE388BD8FEF8AB90895E0ECA8
:1000C000F0E0908195FFFDCF8093C6000895CF9317
:1000D000DF93CDB7DEB763970FB6F894DEBF0FBEE0
:1000E000CDBF83E1E0E0F1E0DE01119601900D92D9
:1000F0008A95E1F70E944B00222423946894662499
:1001000067F8712C0F2EF1E88F2E912CF02D0F2E09
:10011000F4E43F2EF02D6894CC24C5F80F2EF6E8B9
:10012000AF2EB12CF02D6894442442F87E0182E178
:10013000E80EF11C0F2EFDEC5F2EF02D209825B857
:10014000F3011082F4013082C6BAB59BFECFF501EF
:100150008081C6BAF4014082B59BFECFF501608173
:10016000C6BA681B70E080E090E00E94140121E7AD
:100170003DE34AE45FE30E9478010E94E300D62E4B
:100180008E010F5F1F4FF80181918F010E945F0068
:100190000E151F05C1F7D59C112D11241695169526
:1001A000169580E3810F0E945F00110F812F880F49
:1001B000880F180F8D2D811B805D0E945F008AE0E3
:1001C0000E945F00BBCF0E94570188F09F5798F0B4
:1001D000B92F9927B751B0F0E1F0660F771F881F4C
:1001E000991F1AF0BA95C9F714C0B13091F00E9466
:1001F0007101B1E008950C947101672F782F882761
:10020000B85F39F0B93FCCF3869577956795B3958C
:10021000D9F73EF490958095709561957F4F8F4FFB
:100220009F4F0895E89409C097FB3EF49095809500
:10023000709561957F4F8F4F9F4F9923A9F0F92FAC
:1002400096E9BB279395F695879577956795B7952A
:10025000F111F8CFFAF4BB0F11F460FF1BC06F5F10
:100260007F4F8F4F9F4F16C0882311F096E911C022
:10027000772321F09EE8872F762F05C0662371F043
:1002800096E8862F70E060E02AF09A95660F771F57
:10029000881FDAF7880F9695879597F9089557FD87
:1002A0009058440F551F59F05F3F71F04795880FE4
:1002B00097FB991F61F09F3F79F08795089512167B
:1002C00013061406551FF2CF4695F1DF08C0161627
:1002D00017061806991FF1CF8695710561050894D8
:1002E0000895E894BB2766277727CB0197F90895EF
:1002F0000E948B010C94FC010E94EE0138F00E94D8
:10030000F50120F0952311F00C94E5010C94EB011C
:1003100011240C9472010E944F0170F3959FC1F358
:10032000950F50E0551F629FF001729FBB27F00DA3
:10033000B11D639FAA27F00DB11DAA1F649F6627F8
:10034000B00DA11D661F829F2227B00DA11D621F47
:10035000739FB00DA11D621F839FA00D611D221F01
:10036000749F3327A00D611D231F849F600D211DE5
:10037000822F762F6A2F11249F5750409AF0F1F068
:1003800088234AF0EE0FFF1FBB1F661F771F881FD1
:1003900091505040A9F79E3F510580F00C94E50123
:1003A0000C9472015F3FE4F3983ED4F38695779501
:1003B0006795B795F795E7959F5FC1F7FE2B880F77
:1003C000911D9695879597F9089597F99F6780E80D
:1003D00070E060E008959FEF80EC089500240A9497
:1003E0001616170618060906089500240A94121610
:1003F0001306140605060895092E0394000C11F443
:10040000882352F0BB0F40F4BF2B11F460FF04C0EF
:0E0410006F5F7F4F8F4F9F4F0895F894FFCF7F
:10041E00205468652070756C736520776964746804
:04042E003A20000070
:00000001FF
