S00C00006C6162312E73726563B8
S11300000C9434000C943E000C943E000C943E007E
S11300100C943E000C943E000C943E000C943E0064
S11300200C943E000C943E000C943E000C943E0054
S11300300C943E000C943E000C943E000C943E0044
S11300400C943E000C943E000C943E000C943E0034
S11300500C943E000C943E000C943E000C943E0024
S11300600C943E000C943E0011241FBECFEFD8E048
S1130070DEBFCDBF0E945E000C9469000C940000AA
S113008016BC14BC81E085BD40E050E012C085B3CD
S1130090817085BB8823D9F381E085BB2F5F3F4FF7
S11300A002C020E030E0213782E0380781F74F5F5B
S11300B05F4F44365105A9F715BC08958FEF8AB9EF
S11300C085E58BB90E9440008BB11BB880958BB934
S10900D0F9CFF894FFCF04
S9030000FC
