:020000040800F2
:100000008807002039020008410200084302000866
:1000100045020008470200084902000800000000ED
:100020000000000000000000000000004B0200087B
:100030004D020008000000004F02000851020008B5
:10004000530200085302000853020008530200083C
:10005000530200085302000853020008530200082C
:10006000530200085302000853020008530200081C
:10007000530200085302000853020008530200080C
:1000800053020008530200085302000853020008FC
:1000900053020008530200085302000853020008EC
:1000A00053020008F115000853020008530200082B
:1000B00053020008530200085302000853020008CC
:1000C0005302000853020008530200089D13000861
:1000D0005302000853020008411600085116000898
:1000E00053020008530200085302000800F002F80F
:1000F00000F092F80AA090E8000C82448344AAF130
:100100000107DA4501D100F087F8AFF2090EBAE82D
:100110000F0013F0010F18BFFB1A43F0010318473B
:100120008C2B0000AC2B0000103A24BF78C878C19B
:10013000FAD8520724BF30C830C144BF04680C60ED
:10014000704700000023002400250026103A28BF35
:1001500078C1FBD8520728BF30C148BF0B60704739
:100160006E2900F05381702900F09582662902F013
:100170000385652902F00085672902F0FD84612965
:1001800002F0FC8403681B0A28BF41F08001692942
:1001900000F00081642900F0FD80752900F0FA80EC
:1001A0006F2900F02382782900F06182E92900F0AC
:1001B000BD81E42900F0BA81F52900F0B781EF296B
:1001C00000F02082F82900F060820368DB0928BF74
:1001D00041F08001632900F06187732900F0668790
:1001E000E32900F07187F32900F07687002070473B
:1001F0001FB500F0C7FF04000020002102F0A6FC9C
:10020000401C60600020002102F08AFCE06000F0E9
:100210004DF81FBD10B510BD00F086FF1146FFF769
:10022000E7FF02F083F801F063F803B4FFF7F2FF91
:1002300003BC01F0ADF800000948804709480047B9
:10024000FEE7FEE7FEE7FEE7FEE7FEE7FEE7FEE786
:10025000FEE7FEE704480549054A064B70470000E3
:1002600089150008ED00000888010020880700209B
:1002700088030020880300200FB41CB5084B06AA91
:100280007B4469460090059800F0D9F804460020A8
:10029000694600F0E7F820461CBC5DF814FB00003E
:1002A000E1010000704770477047000070B5064CD0
:1002B0007C44064D7D4404E02046016808448047A4
:1002C000241DAC42F8D170BD442B0000502B00001F
:1002D00070B5044685690068C10601D5302600E086
:1002E0002026C00707D070BDD4E9012130469047D1
:1002F000206A401C20626D1EF6D570BD70B50446A4
:1003000085690078C00707D170BDD4E9012120209C
:100310009047206A401C20626D1EF6D570BD0968AA
:100320004A0501D540B27047C905FCD500B27047F7
:1003300009684A0501D5C0B27047C905FCD580B22D
:10034000704770B50C460546012A05D0287880060E
:1003500000D5EA69002302E0012305E05B1C93421B
:1003600002D2E05C0028F9D1A869E618C01AA86199
:10037000286A184428622846FFF7AAFF04E0D5E956
:10038000012114F8010B9047B442F8D32846FFF737
:10039000B5FF70BD2DE9F0410646002410687529AF
:1003A000314616A510D0FFF7BAFF002802DA404206
:1003B00013A507E031688A0701D512A502E04907B5
:1003C00004D511A5012401E0FFF7B2FF00210A22A4
:1003D00006F1240709E0B0FBF2FCB0FBF2F302FBEC
:1003E0001C00303078541846491C0028F3D12346AD
:1003F0002A463046BDE8F04100F061BA0000000036
:100400002D0000002B000000200000001168026891
:10041000006A530501D508700AE0D30501D50880AC
:1004200006E0130603D5C217C1E9000200E0086028
:100430000120704701694A1C02610878704700B5C5
:100440008FB0CDE901310021059105497944CDE90D
:1004500003101146684600F029F90FB000BD0000F6
:10046000E5FFFFFF0A6802F8010B0A607047000011
:100470002DE9FF5F15468A460446DFF8AC80F84454
:100480000027D8E900103E46CDE9001010E03AF808
:1004900016106A4602A800F023FE411C07D02178FE
:1004A000890603D5E269391891420DD80744761CB4
:1004B0002078800602D5E069B84205DDAE42E6DB71
:1004C0003AF816000028E2D1A069C01BA0612046BE
:1004D000FFF7FEFED8E90010CDE90010002017E07C
:1004E0003AF818106A4602A800F0FAFDB0F1FF3F92
:1004F00081460BD000250DF1080B05E0D4E9012160
:100500001BF8050090476D1C4D45F7D308F101001D
:10051000B0428046E4DB206A384420622046FFF780
:10052000EDFEBDE8FF9F0000FE2600002DE9F04132
:100530008046D21D22F007020025D2E90002F529EB
:1005400015A614D0011E72F1000106DA0023D0EBCB
:10055000030063EB020211A608E0D8F800108B0735
:1005600001D50FA602E0490701D50EA601251146C7
:10057000002408F1240704E000F05CF930323A5519
:10058000641C50EA0102F7D12B4632462146404610
:10059000BDE8F04100F093B9000000002D0000001C
:1005A0002B0000002000000030B4002100F12404E2
:1005B00008E002F00705D208303542EA4372DB0852
:1005C0006554491C52EA0305F3D10468002310A2C4
:1005D000250708D504F020040C4304D0C469012386
:1005E0000CA2641EC46130BC00F069B910B50446A9
:1005F00021461068FFF79CFE02462046BDE81040E9
:100600000023D1E7D21D22F00701D1E90023CBE777
:100610000000000030000000F0B40D46018809051C
:1006200002D5214C7C4402E01F4C7C440E34002156
:1006300000F1240608E002F00F071209E75D42EA24
:1006400003721B097754491C52EA0307F3D102785D
:100650000023120704D5702D06D009B102231134EE
:100660002246F0BC00F02BB901231034F8E770B536
:1006700004460D4621461068FFF75AFE02462946F9
:100680002046BDE870400023C6E7D21D22F00703D4
:10069000D3E90023C0E70368126843F02003036036
:1006A0000823C3610023B7E7602500002DE9F05F50
:1006B000894604464FF0000ADFF874B1FB44C0F8E5
:1006C00020A02046E1688847002874D0252806D05D
:1006D000D4E901219047206A401C2062F1E70026FE
:1006E0005F462046E16888472028054607DB312D14
:1006F00005D2781910F8200C08B10643F1E7B007CD
:1007000001D526F00406C4F81CA00027C4F818A0E0
:100710002A2D09D0284602F0FBF938B304EB8708EC
:10072000303DC8F8185019E059F8041B204604EB76
:1007300087029161E1688847012F054618D1E06979
:10074000002820DA26F020061DE0D8F8180000EB7B
:10075000800005EB40003038C8F818002046E168FA
:100760008847054602F0D4F90028EED1012F0AD0BF
:100770002E2D08D12046E16888477F1C0546022FB0
:1007800046F02006C4DBA069002803DA404246F0A8
:100790000106A061F00701D026F010066C2D0BD0E9
:1007A000682D09D04C2D39D06A2D35D0742D35D017
:1007B0007A2D33D016E038E0E1682F46204688478E
:1007C000B842054609D16C2F26D04FF48060E1680D
:1007D000064320468847054604E06C2F1AD04FF4A4
:1007E000807006430DB3A5F14100192802D82035C9
:1007F00046F400664A462946204626604E46FFF7E4
:10080000AFFC80B101280BD0F61D26F0070000F1E7
:10081000080956E74020E4E78020D8E70020D6E723
:1008200006F104094DE7284652E7206ABDE8F09F2B
:10083000F024000030B5B0F10A0271F100034FEA74
:10084000900E4EEA817EB0EB0E0061EB91014FEA13
:10085000101E4EEA017E10EB0E0041EB11114FEA23
:10086000102E4EEA016E10EB0E0041EB11214FEA03
:10087000104E4EEA014E10EB0E0041EB11414018B4
:1008800041F100014FEAD00040EA41704FEAD10146
:100890004FEA810444EA907410EB800544EB0104B4
:1008A0006D1944EB0404521BA3414FF0000348BFF1
:1008B0000A3200D530BD401C41F1000130BD2DE9A8
:1008C000F0470D4699469246044600F12408016817
:1008D000880604D5E06921F01001216000E00120C4
:1008E000A84201DD471B00E00027A1697A1902EB4D
:1008F0000900081AA0612078C00602D42046FFF73C
:10090000E7FC002608E0D4E901211AF80600904728
:10091000206A401C761C20624E45F4DB2078C0061D
:100920000AD52046FFF7D4FC06E0D4E901213020A7
:100930009047206A401C2062381EA7F10107F4DCB2
:1009400007E0D4E9012118F805009047206A401C0F
:100950002062281EA5F10105F3DC2046FFF7CEFC3E
:100960002078000602D50220BDE8F0870120FBE7D1
:100970002DE9FF4F0C461E464FF0FF378BB0D2E9F2
:100980000001DDF860800A908A46C1F30A5505B976
:100990003D46002108464FF00000BAF1000F00F478
:1009A000400005DA00EB80004FF4400101EA5000FE
:1009B0004FEA9059B9F1010F00DDB9460A9850EAA3
:1009C0004A000ED044F61050A5F2FF3545432F14CF
:1009D000B8F1000F1ED07542291E1EDDC9F10002BC
:1009E0001CE0B8F1010F4FF0000001D0302103E00E
:1009F000F24305E02154401CB042FBDB30460022AC
:100A0000002121540B99C1F80880C1E900200FB0E2
:100A1000BDE8F08FBD1B6D1CDEE74A4600DA694277
:100A200006A800F0F3FB06AB93E8070003AB83E8EE
:100A3000070050460A9901F08FFC8DE80700A0F5E9
:100A400000501F3800900398002D0ADD42F21F016C
:100A50004A460844002303A90390684601F0F8FEC3
:100A600009E0A0F500504A461F38002303A903906F
:100A7000684601F002FF8DE807000004000C03D077
:100A80004FF0FF30410800E01046B8F1000F03D0EE
:100A90000022009215461EE0751E05D4FFF7CAFE1F
:100AA000303262556D1EF9D5B3460122084302D09B
:100AB00000227F1C04E02078302801D100227F1E14
:100AC000002A099784D01DE0112D07DAFFF7B2FE46
:100AD000303262556D1C50EA0102F5D1084302D054
:100AE0000098C8B10EE00021681E05E0235C625C3E
:100AF00063542254401E491C8142F7DBAB46A81BBD
:100B0000401E0990002004F80B000B98099AC0F8C9
:100B10000880C0E9002B7AE711264FF0000857E75C
:100B20002DE9F04F88460446D21D22F0070191B00E
:100B3000D1E90001CDE90A0101F0D6FF02460B9888
:100B4000C00F01D02D2007E02068810701D52B20A0
:100B500002E0202101EAC000032A099001D0072AFF
:100B600005DB03464146204600F010FB0BE12078F0
:100B7000800601D5E06900E00620B8F1650F8146E6
:100B800006D0B8F1660F18D0B8F1670F70D131E018
:100B90000020B9F1110F009001DB112301E009F1F0
:100BA00001030AAA01A90CA8FFF7E2FEDDE90C7017
:100BB000002609F10105834647E001204B460090DD
:100BC0004FF000470AAA01A90CA8FFF7D1FEDDE902
:100BD0000DB00C995D46002610B909F101000D1801
:100BE000B9EB050003D4C0F1FF3609F10105A5EB0F
:100BF00009002BE0B9F1010F01DA4FF001090020E3
:100C0000B9F1110F0090484601DD112300E00346C1
:100C10000AAA01A90CA8FFF7ABFEDDE90C704D464E
:100C200000268346207800070AD4AB4500DA5D46EB
:100C300001A8012D04DD411911F8011C302907D04C
:100C40004F4502DA17F1040F04DA012082460FE063
:100C50006D1EEEE7002F02DCED1B3E4403E0781C26
:100C6000A84200DD7D1CB81B00F1010A4FF00047CF
:100C70002078000703D4AA4501DB4FF0FF3A00219A
:100C8000B7F1004F0DF143088DF8431024D0022036
:100C90002B23002F01DA7F422D230A21021EA0F10F
:100CA000010000DC5FB197FBF1FC97FBF1F201FB67
:100CB0001C7C17460CF1300C08F801CDEEE7A8F1CA
:100CC000010003702188090501D5452100E0652157
:100CD000A0F1010800F8011C09980FA9A1EB080771
:100CE000FF1D00B10120411901EBEA70A1693844F0
:100CF000081A401EA0612078C00602D42046FFF7E3
:100D0000E7FA099828B1D4E901219047206A401CEC
:100D100020622078C00622D52046FFF7D9FA1EE0CF
:100D2000002E04DBB34502DD01A8805D00E0302029
:100D3000D4E901219047206A401C2062761CAAF168
:100D400001005FEA000A0AD100F01CFAC0680168DD
:100D5000405CD4E901219047206A401C2062281E93
:100D6000A5F10105DCDC07E0D4E9012118F8010B4D
:100D70009047206A401C2062381EA7F10107F3DC6F
:100D80002046FFF7BBFA032011B041E62DE9F04FF2
:100D900004460D46D21D22F0070089B0D0E9009725
:100DA0004846394601F0A0FE0246F80F01D02D2337
:100DB00007E02068810701D52B2302E0202101EA0A
:100DC000C0038DF820300BB1012000E00020032A81
:100DD000824601D0072A04DB2946204600F0D6F9D6
:100DE0003FE12078800601D40D2500E0E569C7F3D6
:100DF0000A560D2D49DA00214FEA175B08464FF0DD
:100E00000000002F00F4400007DA00EB80004FF4F0
:100E1000400100EBD07001EA60008115012901DD7D
:100E20004FF0FF3100224FEA850CBCF1180F06D3BA
:100E30001346ACF118004FF08052C24003E04FF46B
:100E4000801323FA0CF30CF10C0CBCF1200F04D32B
:100E5000ACF1200C09FA0CF001E007FA0CF00029C3
:100E60004FF0004801DD18B90FE00ED140450CD31A
:100E700019EB02095F4121B9404502D19F4329EA9C
:100E80000209BBEB175F00D0761C2088000502D555
:100E90007B48784402E07A487844193808AA30231D
:100EA00002F80A30037C0AF10101002E0AF1020A5D
:100EB00053546A4602DC4FF0300101E04FF031013B
:100EC0004FF001088DF8001002D0A6F2FF3603E0C3
:100ED00059EA470100D06B4E002D02DC217809074A
:100EE00004D54FF002082E218DF80110C4460021D0
:100EF0000BE0C7F303433F01C35C491C6D1E02F8BE
:100F00000830052908F1010801DA002DF1DC002183
:100F10000CE000EB1973491C1B786D1E082902F8C0
:100F200008304FEA091908F1010801DA002DF0DC58
:100F300021688B0602D516E0A8F10108E04505DD21
:100F400002EB080313F8013C302BF5D0B8F1000F89
:100F500009DD02EB080313F8013C2E2B03D109072E
:100F600001D4A8F10108002D05DD3E2102F808108A
:100F70006D1E08F10108407C002E02F8080008F1FF
:100F8000010804DA2D20764202F8080002E02B2046
:100F900002F808000A214FF47A70864208F101082D
:100FA0000BDB96FBF0F3303302F8083096FBF0F3DE
:100FB00008F1010800FB136601E0642E0CDB6420DD
:100FC00096FBF0F3303302F8083096FBF0F308F1AB
:100FD000010800FB136601E00A2E06DB96FBF1F028
:100FE000303002F8080008F1010896FBF1F001FB2F
:100FF0001060303002F80800A16908F1010808EB20
:10100000050202EB0A00081AA0612078C00602D48B
:101010002046FFF75DF9216A08AE01EB0A00206265
:1010200004E0D4E9012116F8010B9047BAF1010A56
:10103000F7D22078C00602D52046FFF749F96E4660
:1010400009E016F8010B3E280FD0D4E901219047A2
:10105000206A401C2062B8F10108F2D22046FFF756
:101060004DF909B00320BDE8F08F206A28442062C2
:1010700003E0D4E90121302090476D1EEBD3F8E75F
:101080003E1D000002FCFFFF10B5436913B1AFF332
:10109000008001E0FFF755F9012010BD127800F142
:1010A00024010A7000224A700122EDE711684FF016
:1010B000FF32E9E710B5436913B1AFF3008001E0F7
:1010C000FFF7D6F9012010BD128800F124018284B7
:1010D0000022C2840122EDE711684FF0FF32E9E7F8
:1010E0002DE9F04116460C46054600F043F803682A
:1010F00093F80101012807D0FF2C12D8185D80B1A8
:1011000001202C70BDE8F081D3F80701324621465A
:1011100003F20713C7182846BC46BDE8F041002378
:1011200060474FF0FF30EDE7754600F0EBF8AE4654
:1011300005006946534620F00700854618B020B5E3
:10114000FFF788F8BDE820404FF000064FF0000799
:101150004FF000084FF0000BAC46ACE8C009ACE81B
:10116000C009ACE8C009ACE8C00921F007018D4610
:101170007047000010B500F005F8001D10BD00BF5D
:10118000CD19000000487047280000202DE9F041EB
:101190001F46044603260168072A01F4006004DBA9
:1011A00008B116A505E016A503E008B115A500E0F5
:1011B00015A521F010002060A069C01EA0610FB12C
:1011C000401EA0612046FFF783F84FB1D4E901210A
:1011D00038469047206A401C2062C01C206206E00E
:1011E000206AFAE7D4E9012115F8010B9047761E31
:1011F000F8D22046FFF782F8BDE8F0814E414E005C
:101200006E616E00494E4600696E66002DE9F0473A
:10121000814616468AB0354878440DC88DE80D00E1
:1012200032487844801C03AC0DC884E80D0041F6B8
:101230009B300844372190FBF1F290FBF1F5A5F1CA
:10124000800501FB12041B3C02D56442012000E032
:101250000020DFF898A080460027FA44AAF1BE0AD1
:101260000EE0E0070AD03246684607EB470101234B
:101270000AEB810101F001FB8DE8070064107F1C7F
:10128000002CEED1194F7F44AE3F19E0E80715D08E
:1012900007EB04100DF1180A90E80E008AE80E0022
:1012A000C068F04201D1981908903246012306A97E
:1012B00003A801F0E2FA03AB83E807006D10641C99
:1012C000002DE3D14FF0010332466946B8F1000F1B
:1012D00003A802D001F0BCFA01E001F0CEFAC9E99E
:1012E0000001C9F808200AB0BDE8F087481A0000DC
:1012F00010B50446AFF300802046BDE81040FEF76D
:1013000094BF000000487047080000204FF0013CE7
:1013100050F8042B51F8043B9A4221D1A2EB0C0364
:10132000934313EACC1317D150F8042B51F8043B24
:101330009A4215D1A2EB0C03934313EACC130BD1C1
:1013400050F8042B51F8043B9A4209D1A2EB0C034C
:10135000934313EACC13DBD04FF00000704700BF7B
:10136000D01A01BAB1FA81F101F0180122FA01F0A4
:10137000CB40DBB2C0B2C01AC1F120012CFA01F39C
:10138000D11A914311EAC311E6D1704770470000AA
:1013900001491820ABBEFEE72600020080B582B0EE
:1013A00043F20400C4F201000088000600282AD598
:1013B000FFE743F20800C4F201000088800700281C
:1013C00020D5FFE740F29401C2F2000148680138DD
:1013D000486038B1FFE743F20C01C4F20101FF207D
:1013E00008800EE043F20C01C4F2010100200880E5
:1013F00043F20401C4F20101088820F08000088053
:10140000FFE7FFE7FFE743F20800C4F201000088AE
:10141000C00708B3FFE743F20C00C4F201000088E4
:101420008DF8070043F20800C4F20100008880072D
:10143000002810D5FFE79DF8071040F29400C2F293
:1014400000000174016801310160006800F00700CC
:1014500000F0FCF9FFE7FFE702B080BD80B500F0C7
:1014600001F880BD84B000200390029041F2000199
:10147000C4F20201086840F480300860FFE741F2DE
:101480000000C4F20200006800F4003002900398EB
:1014900001300390FFE702990020019039B9FFE77E
:1014A0000398B0F5A06018BF01200190FFE70198F4
:1014B000C0070028E3D1FFE741F20000C4F20200B8
:1014C00000688003002803D5FFE70120029002E0B6
:1014D00000200290FFE70298012851D1FFE742F275
:1014E0000001C4F20201086840F0100008600868BA
:1014F00020F007000860086840F00200086041F230
:101500000401C4F2020100910868086008680860DC
:10151000086840F480600860086820F47C10086067
:10152000086840F4E810086041F20001C4F20201CA
:10153000086840F080700860FFE741F20000C4F2E4
:10154000020000688001002801D4FFE7F5E741F2BE
:101550000401C4F20201086820F003000860086872
:1015600040F002000860FFE741F20400C4F202000C
:10157000006800F00C00082801D0FFE7F4E700E065
:10158000FFE704B07047000080B541F20002C4F2EA
:101590000202106840F00100106041F20401C4F240
:1015A000020108680023CFF6FF03184008601068A6
:1015B0004FF6FF73CFF6F66318401060106820F402
:1015C00080201060086820F4FE00086041F20801E5
:1015D000C4F202014FF41F000860FFF73FFF4EF610
:1015E0000851CEF200014FF00060086080BD00009D
:1015F0002420C4F20000008840F29401C2F20001ED
:10160000886040F62400C4F200000088C86042F6FA
:101610001042C4F20102108820F001001080042062
:10162000486043F20401C4F20101088840F08000E0
:10163000088042F20841C4F20101012008607047AD
:1016400080B540F2B000C2F2000000F099FC80BD0D
:1016500080B540F2B800C2F2000000F091FC80BDFD
:1016600080B500F001FE00F021FE00F035FE80BDE7
:1016700080B500F007FE00F027FE00F03BFE00F012
:1016800047FE80BD80B500F0DBFD80BD80B500F079
:10169000DFFD00F0FFFD80BD80B586B08DF817003E
:1016A00000F02CFA014640F25010C2F2000000F0A7
:1016B000B7FC049000F05CFA014640F25810C2F208
:1016C000000000F0ADFC039040F2DC00C2F200002C
:1016D0000068632858D8FFE740F2DC00C2F200003F
:1016E000006800284BD0FFE740F2DC00C2F20000A7
:1016F00000680499039A1144411A40F26010C2F242
:10170000000000F0EBFB0290049803999DF817206D
:1017100000F004FB014640F27410C2F2000000F039
:10172000DDFB019002980199401A049002980199FA
:10173000084403900498B0F1FF3F03DCFFE700206A
:101740000490FFE70398B0F1FF3F03DCFFE70020C0
:101750000390FFE704984AF6C871884204DBFFE76C
:101760004AF6C7700490FFE703984AF6C8718842AA
:1017700004DBFFE74AF6C7700390FFE703E00020B1
:1017800003900490FFE707E040F2DC00C2F20000A3
:10179000006803900490FFE7049800F0BBF90398F9
:1017A00000F0ECF906B080BD40F2D800C2F20000B3
:1017B000006841F66B51CFF6F301A0FB0110800ADF
:1017C0007047000080B582B00190019940F2B800E6
:1017D000C2F2000000F0FEFB02B080BD80B540F216
:1017E0006C00C2F2000000F031FB40F28000C2F257
:1017F000000000F02BFB40F2C400C2F2000000F039
:1018000025FB80BD80B582B0019040F2E000C2F2BD
:10181000000000680199884201D1FFE713E00198B8
:1018200040F2E001C2F200010091086000F06CF9A2
:10183000FFF732FFFFF7D2FF00F026F900980068AB
:1018400000F0FCF9FFE702B080BD000081B000901D
:10185000009807282CD1FFE742F61C40C4F2010093
:10186000008846F60101884207D1FFE740F2D8011F
:10187000C2F2000100200860FFE742F62041C4F2F6
:101880000101088820F48070088042F63C42C4F2CE
:1018900001024AF61470108042F61C42C4F20102A2
:1018A00046F670001080088840F48060088063E08D
:1018B0000098E0B9FFE742F62041C4F20101088830
:1018C00020F48060088042F61C42C4F2010246F611
:1018D00001001080088840F48070088042F61041B2
:1018E000C4F20101088820F00800088043E042F6B5
:1018F0001040C4F201000088000700283AD5FFE735
:10190000009942F63C40C4F2010003884AF6C872CE
:1019100001FB023140F2D802C2F2000211600088DD
:1019200042F62441C4F20101098888420ADDFFE73A
:1019300040F2D801C2F2000108684AF6C872801A63
:101940000860FFE742F61041C4F20101088820F068
:101950000800088042F62041C4F20101088820F402
:101960008070088042F61C41C4F2010146F6030073
:101970000880FFE7FFE7FFE701B0704780B582B05E
:101980000190019840B9FFE740F29400C2F20000D4
:101990000068FFF737FF19E040F29400C2F2000040
:1019A0000168019808440190FFE7019840F2940112
:1019B000C2F200010968884208D0FFE740F29400B3
:1019C000C2F200000068FFF71DFFEEE702B080BD25
:1019D00080B586B08DF817000491049840F2DC01C0
:1019E000C2F20001086040F2AC01C2F20001002026
:1019F00008609DF8170040F2C001C2F200010870B3
:101A0000013801460391032822D80399DFE801F049
:101A1000020A12190120029000F086F8029800F0E4
:101A2000B7F81CE00020019000F07EF8019800F06B
:101A3000AFF814E0002000F077F8012000F0A8F8DB
:101A40000DE0012000F070F8002000F0A1F806E0A1
:101A500040F2DC01C2F2000100200860FFE740F222
:101A60006010C2F2000000F031FA40F27410C2F2CD
:101A7000000000F02BFA00F0AFF840F26801C2F26B
:101A80000001086006B080BD80B582B040F2E4017C
:101A9000C2F20001086801300860072801DCFFE796
:101AA00023E040F2E401C2F200010020086040F6A9
:101AB0000800C4F20100006800F48050019040F278
:101AC0000000C2F2000000680199884201D1FFE7DE
:101AD0000BE0019840F20001C2F20001086000280A
:101AE00018BF012000F084F8FFE702B080BD0000BD
:101AF00042F24C40C4F201000068704740F294008A
:101B0000C2F200008068704740F29400C2F2000008
:101B1000007C704781B00090009842F63441C4F2D6
:101B20000101088001B0704781B08DF8030042F6D2
:101B30002041C4F20101088820F0050008809DF8CA
:101B40000300C00748B1FFE742F62041C4F201019B
:101B5000088840F00100088008E042F62041C4F205
:101B60000101088840F004000880FFE701B07047D9
:101B700040F29400C2F20000C068704781B000904B
:101B8000009842F63841C4F20101088001B0704764
:101B900081B08DF8030042F62041C4F201010888AB
:101BA00020F0500008809DF80300C00748B1FFE70F
:101BB00042F62041C4F20101088840F0400008804C
:101BC00008E042F62041C4F20101088840F010000C
:101BD0000880FFE701B0704780B582B0FFF78EFF45
:101BE0000190FFF7C5FF01460198084402B080BD8F
:101BF00080B582B08DF807009DF8070000F0010065
:101C00000A21FFF7E5FE02B080BD000081B08DF82B
:101C100003009DF9030000280ED4FFE79DF903108F
:101C200001F01F02012090404A094EF20011CEF24D
:101C3000000141F82200FFE701B0704780B588B08D
:101C400007909DF81C00C00608B1FFE763E0FFF7AE
:101C5000ABFD0290FFF7C0FF0390FFF749FF029A28
:101C6000039B59214843000B6946086040F2E80095
:101C7000C2F20000049042F67C41C0F60001FEF77B
:101C8000FBFAFFF741FF014604988DF81B109DF801
:101C90001B10CA072E210591002A0A4618BF3022C0
:101CA000C2719DF81B209207002A0A4648BF3122C4
:101CB00002729DF81B205207002A0A4648BF3222B2
:101CC00042729DF81B201207002A0A4648BF3322A1
:101CD00082729DF81B20D206002A0A4648BF342291
:101CE00002739DF81B209206002A0A4648BF35223F
:101CF00042739DF81B205206002A0A4648BF36222E
:101D000082739DF81B201206002A48BF3721C17339
:101D1000FFF758FDFFE708B080BD000085B00390D5
:101D200002918DF8072040F2AC00C2F2000000687A
:101D300028B9FFE703980299401A04902FE09DF814
:101D4000070000F018000146009140B1FFE700983D
:101D500008280CD0FFE70098102811D018E040F2B6
:101D60004C10C2F2000000684000049017E040F2FE
:101D70004C11C2F200014FF0FF30086004900EE0F9
:101D800040F24C11C2F2000101200860049006E00C
:101D900040F2AC00C2F2000000680490FFE7049833
:101DA00005B0704783B002908DF80710029900913A
:101DB0009DF8070008729DF8070088B9FFE70098B2
:101DC0004068B0F5805F05D1FFE700980168406882
:101DD000486104E00098016840680861FFE7FFE798
:101DE0009DF80700012811D1FFE700984068B0F581
:101DF000805F05D1FFE7009801684068086104E052
:101E00000098016840684861FFE7FFE79DF8070018
:101E1000022805D1FFE700994FF4C870C860FFE7BA
:101E20009DF80700032804D1FFE70099C820C86087
:101E3000FFE79DF80700042805D1FFE700994FF45C
:101E40004870C860FFE703B07047000082B001909F
:101E500001980090007A08B9FFE721E00098007A25
:101E6000012801D1FFE71BE00099086901300861F2
:101E7000C968884201D2FFE712E00099002008619A
:101E80000868C0684968084205D0FFE70098016803
:101E90004068486104E00098016840680861FFE715
:101EA00002B0704780B584B003900291019203980C
:101EB000009002990160019A012101FA02F2426048
:101EC000FFF770FF009804B080BD000081B0009063
:101ED000009900200861C86001B0704784B0039089
:101EE00002910398009002990269891A019102995E
:101EF0000161029AC1681144C160C06846F21611BE
:101F0000C7F69161884207DBFFE7009946F215109A
:101F1000C7F69160C860FFE70098C06849F6EA61BB
:101F2000C8F26E11884207DCFFE7009949F6EB60C2
:101F3000C8F26E10C860FFE7009B02981A68D3F8D9
:101F400004C09968DB6803FB0CF300FB02320198C4
:101F500000FB012004B0704780B586B00590049165
:101F600003920293059801900499016003994160DE
:101F700002998160FFF7AAFF019806B080BD0000BA
:101F800082B0019001980090406800880006002807
:101F90001ED5FFE70098006890B1FFE70098006841
:101FA000007840B1FFE700990868421C0A60007899
:101FB0004968888003E0009900200860FFE706E098
:101FC00000984168888920F080008881FFE7FFE75A
:101FD00002B0704784B002900191029800900068AE
:101FE00020B1FFE700208DF80F000BE00098019969
:101FF00001604168888940F08000888101208DF867
:102000000F00FFE79DF80F0004B0704782B0019009
:1020100000910198009941600021016002B0704771
:1020200086B0059004910598009004994268891A39
:102030000391049941600068019003980290FFE7C2
:10204000019858B1FFE7019800F00F010298084489
:102050000290FFE7019800090190F1E700990868F4
:1020600000010860039A086810430860029806B0EF
:102070007047000081B0009000980021016041602D
:1020800001B0704780B586B005900598039041F285
:102090001801C4F2020141F60C20086041F21C0153
:1020A000C4F202010520C0F20600086040F60001FB
:1020B000C4F2010144F64220CAF2A440086040F68E
:1020C0000401C4F201014AF2AA40C4F2444008608B
:1020D00040F60041C4F2010144F24040C4F2442001
:1020E000086040F60441C4F2010144F64420CAF6F7
:1020F000A220086042F60C41C4F2010101200290C6
:10210000088042F62841C4F201010320088042F60B
:102110002C41C4F201014AF6C770088042F618410A
:10212000C4F2010146F66800088042F62041C4F27C
:1021300001014FF40070088042F64441C4F20101ED
:102140004FF40040088044F20841C4F2000140F618
:10215000A660088044F60801C4F2000140F239107C
:10216000088044F60C00C4F2000000900C210180AD
:10217000008844F20C41C4F200010491088042F24C
:102180001041C4F201014FF0E060086042F23441B6
:10219000C4F201010820086043F20401C4F2010105
:1021A0004020088043F20001C4F20101019140F295
:1021B0003E30088040F60800C4F20000672101802C
:1021C00000880821C4F2000108801821C4F200012F
:1021D0004FF480700880088808801920FFF716FDEA
:1021E0002620FFF713FD2720FFF710FD2320FFF720
:1021F0000DFDDDF800C0019B02990398DDF810E0A9
:10220000BEF8002042F40052AEF80020BCF80020D6
:1022100042F40052ACF800201A8842F040021A80C2
:1022200040F60002C4F20002118012884FF0804391
:102230001A8042F60042C4F20102118006B080BD4D
:1022400080B540F29400C2F20000FFF71BFF80BD92
:1022500080B540F2B000C2F2000044F20041C4F286
:102260000001FFF7D3FE80BD80B540F26C00C2F2E2
:10227000000040F60041C4F201010C22FFF712FEFB
:1022800080BD000080B540F25010C2F20000FFF7A0
:10229000F1FE80BD80B540F2B800C2F2000044F605
:1022A0000001C4F20001FFF7B1FE80BD80B540F22D
:1022B0008000C2F2000040F60041C4F20101062293
:1022C000FFF7F0FD80BD000080B540F25810C2F26B
:1022D0000000FFF7CFFE80BD80B540F2C400C2F21F
:1022E000000040F60001C4F201010022FFF7DAFD10
:1022F00080BD000080B540F26010C2F2000045F2DF
:10230000497164224FF47A73FFF726FE80BD000006
:1023100080B540F27410C2F2000043F23901C822C5
:102320004FF47A73FFF718FE80BD000080B582B0CD
:10233000002101910846FFF74BFBFFE70020FFF764
:102340001DFBFFF731FA3B2805D8FFE700210846BF
:10235000FFF73EFBFFE7F1E75FEA400C08BF91F0B3
:10236000000F4FEA8C234FEAC12243EA51514FEA52
:102370001C5018BF00F5F0404FEA300018BF41F084
:1023800000415FEA6C5C00F02980BCF1FF3F08BFB0
:1023900040F080407047130C06BF12044FF0100C41
:1023A0004FF0000C130E04BF12020CF1080C130FB7
:1023B00004BF12010CF1040C930F04BF92000CF146
:1023C000020CD30F04BF52000CF1010C11464FF068
:1023D0000002A0F11F00A0EB0C00704711F0004FAD
:1023E00008BF704731F000413FF4D5AF0B0C06BF7A
:1023F00009044FF0100C4FF0000C0B0E04BF090243
:102400000CF1080C0B0F04BF09010CF1040C8B0F2D
:1024100004BF89000CF1020CCB0F04BF49000CF182
:10242000010CCCF1200322FA03F341EA030102FA82
:102430000CF2A0EB0C0000F10100704723F07F4785
:1024400020F07F4C80EA030000F00040ACEB070373
:1024500003F57C5303F1FF032DE9804909B44FEAEA
:10246000144324EA03484FEA154B25EA0B4E0FF2BA
:10247000042606EB13273E7803FB0667C7F5000723
:1024800007FB06F64FEAD64606F102064FEA543736
:1024900007FB066CCCF1005C4FEA1C472CEA074CAA
:1024A0000CFB06F507FB06F404EB15464FEA9616FF
:1024B00049085FEA320234BF00204FF000404FEA83
:1024C000D13706FB07FC4FEA1C4C0CFB0BF7D21B69
:1024D00003FB0CF761EB07010CFB0EF7B0EB0740B9
:1024E00072EB17420CFB08F734BFA2EB0742B2EBCA
:1024F000074261EB17414FEA0C444FEA910706FB94
:1025000007FC4FEA1C4C0CFB0BF7B0EBC74072EB1F
:10251000573203FB0CF734BFA2EBC742B2EBC74202
:1025200061EB57310CFB0EF7B0EBC70072EB577243
:102530000CFB08F734BFA2EBC702B2EBC70261EB9A
:1025400057714FEA816141EA92114FEA826242EA91
:1025500090124FEA806004EBCC04039F4FEAD1371E
:1025600006FB07FC4FEA1C4C0CFB0BF7D21B03FBD2
:102570000CF761EB07010CFB0EF7B0EB074072EBB9
:1025800017420CFB08F734BFA2EB0742B2EB07423D
:1025900061EB17414FEA8C5504EB9C244FEA9107FD
:1025A00006FB07FC4FEA1C4C0CFB0BF7B0EBC740DB
:1025B00072EB573203FB0CF734BFA2EBC742B2EB0E
:1025C000C74261EB57310CFB0EF7B0EBC70072EB63
:1025D00057720CFB08F734BFA2EBC702B2EBC7027D
:1025E00061EB57714FEA816141EA92114FEA8262D1
:1025F00042EA90124FEA806015EB4C2544F100044A
:102600004FEAD13706FB07FC4FEA1C4C0CFB0BF7DB
:10261000D21B03FB0CF761EB07010CFB0EF7B0EBD1
:10262000074072EB17420CFB08F734BFA2EB0742DE
:10263000B2EB074261EB17414FEA813141EA924127
:102640004FEA823242EA90424FEA80304FEA0C76FB
:1026500015EB1C1544F1000448EA03434EEA0B480D
:102660004FF0000EB2EB080C71EB030724BF62467B
:1026700039464EEB0E0E4FF0000B00185241494107
:102680004BEB0B0BB2EB080C71EB03077BF1000B70
:1026900024BF624639464EEB0E0E4FF0000B001879
:1026A000524149414BEB0B0BB2EB080C71EB0307AA
:1026B0007BF1000B24BF624639464EEB0E0E51EA09
:1026C000020718BF46F0010616EB0E7655F1000220
:1026D00054F1000103D5BDE88901BDE80088BDE8DB
:1026E0008901BDE80048B619524141EB0101A3F14F
:1026F0000103704780807F7E7D7C7B7A7978777656
:1027000076757473727171706F6E6E6D6C6C6B6ACE
:102710006A6968686766666564646363626161606C
:10272000605F5F5E5E5D5D5C5C5B5B5A5A595958E9
:102730005857575656555555545453535252525153
:10274000515050504F4F4F4E4E4D4D4D4C4C4C4BA9
:102750004B4B4A4A4A4949494848484747474746F0
:10276000464645454544444444434343434242422C
:10277000424141419C46002B30D477002BD04FEA98
:1027800037071CB503B44FF010004FF01001BAF139
:10279000000F06D0BCF1000FDCBF40F0080040F095
:1027A00008014FF000000FBCBDE810400BF1010B19
:1027B000BBF1010F08BF5FEA170722BF12F1010248
:1027C00011F101014FF0004143F1000300F000401E
:1027D00043EA00007047F9D35708D0E746EA0646B7
:1027E0004FEA164613F1400F1FDD13F1200FDFBF34
:1027F00016430A46002120335B42BED0C3F12007B6
:1028000046EA06464FEA164602FA07F746EA070680
:1028100022FA03F2C3F1200701FA07F742EA07029E
:1028200021FA03F14FF00003A7E746EA020646EA61
:1028300006464FEA164646EA0106BCBF46EA064689
:10284000360C4FF000034FF000024FF0000194E708
:102850002DE9804C70B49A46934691E8380007C839
:1028600031EA400C48BF34EA430C03D5FFF7E6FDDC
:10287000FFF780FFF0BCBDE8008C2DE9804C70B400
:102880009A46934691E8380007C810F0804F08BF79
:1028900013F0804F03D100F005F8FFF76BFFF0BC99
:1028A000BDE8008C20F07F4723F07F4C80EA0300D6
:1028B00000F0004007EB0C03A3F57C53A3F1FE03EB
:1028C00092F0000F00F0B38095F0000F00F07780D9
:1028D0002DE901494FEA114021EA00484FEA144628
:1028E00024EA064700FB06FC08FB06F607FB08F88F
:1028F00018EB06484CEB164C00FB07F718EB0748A3
:102900004CEB17404FEA124B22EA0B4E4FEA1546AA
:1029100025EA06470BFB06FC0EFB06F607FB0EFE40
:102920001EEB064E4CEB164C0BFB07F71EEB074E4F
:102930004CEB174B18EB0B0840F1000018EB0E0B9B
:1029400058EB000840F100008F1A4FF000014FF0E3
:1029500000063CBFC943661B14BFB5EB040C002145
:102960003CBFC943F61B4FEA174427EA04454FEA28
:102970001C472CEA074C04FB076205FB07F70CFB1E
:1029800005F616EB074642EB174204FB0CFC16EB70
:102990000C4642EB1C421BEB060658EB020241417F
:1029A0004EEA8E0E46EA9E0601D5BDE80189B619AB
:1029B000524141EB0101A3F10103BDE801894FEA56
:1029C000144524EA05464FEA114721EA074C05FB66
:1029D00007F406FB07F70CFB06F111EB074144EB8C
:1029E000174405FB0CFC11EB0C4144EB1C444FEA73
:1029F000124722EA074C05FB07F206FB07F70CFB20
:102A000006F616EB074642EB174205FB0CFC16EBED
:102A10000C4642EB1C456A1854F1000148BF704750
:102A2000B619524141EB0101A3F10103704795F042
:102A3000000F37D04FEA114221EA02464FEA14470D
:102A400024EA074C02FB07F106FB07F70CFB06F430
:102A500014EB074441EB174102FB0CFC14EB0C4454
:102A600041EB1C414FEA154725EA074C02FB07F5ED
:102A700006FB07F70CFB06F616EB074645EB17457A
:102A800002FB0CFC16EB0C4645EB1C42121951F1F3
:102A9000000148BF7047B619524141EB0101A3F153
:102AA000010370474FEA144524EA05464FEA1147EF
:102AB00021EA074C05FB07F106FB07F70CFB06F2C2
:102AC00012EB074241EB174105FB0CFC12EB0C42E9
:102AD00051EB1C414FF0000648BF7047921841EB84
:102AE0000101A3F101037047490050EAC12018BF5A
:102AF00004204A0D18BF40F0010040F2FF72B2EB13
:102B0000515F08BF40F00200012808BF0520704750
:102B100030380A2801D20120704700207047000099
:102B200010B500290AD00878002807D00548784455
:102B3000FEF7ECFB002801D0002010BD02487844CD
:102B400010BD00009E0100009601000010B5002994
:102B50000AD00878002807D005487844FEF7D6FB4D
:102B6000002801D0002010BD0248784410BD0000AC
:102B70008E01000086010000FDF7D2BFFEF706B906
:102B800000000000000000003031323334353637A9
:102B900038394142434445464030580030313233A1
:102BA00034353637383961626364656640307800A1
:102BB0000400000800000000000000020001000006
:102BC00010303132333435363738396162636465F9
:102BD0006678700030313233343536373839414217
:102BE000434445465850000002400000000000A049
:102BF0000000000005400000000000C800000000C8
:102C00000C4000000000409C000000001940000043
:102C10000020BCBE0000000034400000BFC91B8E75
:102C200000000004B5400000504BCFD06607E2CF53
:102C3000010000006C4100003E8251AADFEEA73483
:102C400001000000D9420000DCB5A0E23A301F9735
:102C5000FFFFFFFFB4450000FD25A0C8E9A3C14F59
:102C6000FFFFFFFFFF3F00000000008000000000AA
:102C7000FF3F000000000080000000000D70617444
:102C8000683D5B7878787820787878785D2064691A
:102C900073743D256420636F756E743D25642062F6
:102CA0006174743D2564202020200000082E000857
:102CB0000000002004000000280100080C2E00087D
:102CC0000800002080070000440100081C000000EC
:102CD00043000000F8FFFFFF0C0000000E000000A2
:102CE0000F0000002E000000100100004300000053
:102CF000F8FFFFFF0040404040404040404041411D
:102D000041414140404040404040404040404040C0
:102D1000404040404005020202020202020202025A
:102D20000202020202202020202020202020200257
:102D300002020202020290909090909010101010E7
:102D40001010101010101010101010101010101083
:102D50000202020202028888888888880808080817
:102D600008080808080808080808080808080808E3
:102D7000020202024000000000000000000000000B
:102D80000000000000000000000000000000000043
:102D90000000000000000000000000000000000033
:102DA0000000000000000000000000000000000023
:102DB0000000000000000000000000000000000013
:102DC0000000000000000000000000000000000003
:102DD00000000000000000000000000000000000F3
:102DE00000000000000000000000000000000000E3
:102DF00000000000000000008DE8FFFF91E8FFFFE9
:0C2E000061E8FFFF6DE8FFFF001000001C
:0400000508000239B4
:00000001FF
