S00D00006C616233632E7372656352
S11300000C9434000C94B0000C94D1000C94460071
S11300100C9446000C9446000C9446000C94460044
S11300200C9446000C9446000C9446000C94460034
S11300300C9446000C9446000C9446000C94460024
S11300400C9446000C9446000C9446000C94460014
S11300500C9446000C9446000C9446000C94460004
S11300600C9446000C94460011241FBECFEFD8E038
S1130070DEBFCDBF21E0A0E0B1E001C01D92A230FF
S1130080B207E1F70E94E2000C9428010C940000EE
S1130090FC0197EC97BD92E094BD91E095BD40E0E2
S11300A050E017C0A99BFECF92E095BB2F5F3F4F56
S11300B002C020E030E0203283E0380799F76F5F18
S11300C07F4F02C060E070E06436710591F74F5FC6
S11300D05F4F4E175F07B1F715BC089587EC87BDD6
S11300E082E084BD81E085BD40E050E00EC0A99B64
S11300F0FECF22E025BB019602C080E090E0803272
S113010023E09207A1F74F5F5F4F4A305105A9F7EB
S113011015BC0895CF93DF9388B1806188B9C0E09E
S1130120D0E007C00E946E0098B180E1892788B9A9
S11301302196CA30D105B1F7DF91CF9108958DB3DF
S11301408DBBE9E6F0E080818160808308958DB302
S113015082608DBBE9E6F0E080818460808308954D
S11301601F920F920FB60F9211248F939F93809139
S11301700001909101010196909301018093000187
S1130180039741F498B181E0892788B9109201015D
S1130190109200019F918F910F900FBE0F901F90AE
S11301A018951F920F920FB60F9211248F9385B159
S11301B0809585B988B188B98F910F900FBE0F9043
S11301C01F9018958FE384B98FEF87B90E949F0021
S11301D00E94A700789488B188B98CE085B985E03D
S11301E090E00E94480088B188B984E185B981E033
S11301F090E00E94480088B188B9C4E2C5B981E0A2
S113020090E00E94480088B188B986E285B981E00F
S113021090E00E94480081E285B988B1806188B984
S113022085E090E00E94480082E285B90E948A003D
S1130230C5B988B188B981E090E00E94480084E3A0
S113024085B988B188B981E090E00E944800C3CFA5
S1070250F894FFCF4C
S9030000FC
