:100000000C9434000C943E000C943E000C943E0082
:100010000C943E000C943E000C943E000C943E0068
:100020000C943E000C943E000C943E000C943E0058
:100030000C943E000C943E000C943E000C943E0048
:100040000C943E000C943E000C943E000C943E0038
:100050000C943E000C943E000C943E000C943E0028
:100060000C943E000C943E0011241FBECFEFD8E04C
:10007000DEBFCDBF0E94A4000C94AC000C94000025
:10008000FC0197EC97BD92E094BD91E095BD40E0F6
:1000900050E017C0A99BFECF92E095BB2F5F3F4F6A
:1000A00002C020E030E0203283E0380799F76F5F2C
:1000B0007F4F02C060E070E06436710591F74F5FDA
:1000C0005F4F4E175F07B1F715BC08958FEF87B9E3
:1000D000109280008FE08093810082E090E0909306
:1000E000890080938800089581E090E00E9440009C
:1000F00083E088B981E090E00E94400081E088B907
:1001000081E090E00E94400018B881E090E00E94F9
:10011000400082E088B9089581E090E00E944000AC
:1001200018B881E090E00E94400083E088B981E047
:1001300090E00E94400081E088B981E090E00E9458
:10014000400082E088B908950E9466000E94740011
:0C0150000E948C0086B3FACFF894FFCF19
:00000001FF
