S01000005175697A334151322E7372656374
S11300000C9434000C9451000C9451000C94510045
S11300100C9451000C9451000C9451000C94510018
S11300200C9451000C9451000C9451000C946000F9
S11300300C9451000C9451000C9451000C945100F8
S11300400C9451000C9451000C9474000C948D0089
S11300500C9451000C9451000C9451000C945100D8
S11300600C9451000C94510011241FBECFEFD8E022
S1130070DEBFCDBF11E0A0E0B1E0E6E7F1E002C0F1
S113008005900D92A230B107D9F721E0A2E0B1E0CA
S113009001C01D92A430B207E1F70E94A9000C949C
S11300A0B9000C94000084E294EF9093890080934B
S11300B088008CE08093810082E080936F00089533
S11300C01F920F920FB60F9211248F939F9381E08A
S11300D090E090930301809302019F918F910F9080
S11300E00FBE0F901F9018951F920F920FB60F928C
S11300F011248F939F938091C600809300019FE900
S1130100980F9A3118F48052809300019F918F9137
S11301100F900FBE0F901F9018951F920F920FB65D
S11301200F9211248F939F93809102019091030168
S1130130019741F4809100018093C600109203015D
S1130140109202019F918F910F900FBE0F901F90FC
S113015018950E94530087E690E09093C500809321
S1130160C40088EB8093C10086E08093C200789439
S1090170FFCFF894FFCF5D
S1050176410042
S9030000FC
