:100000000C9434000C9414010C9446000C9446009B
:100010000C9446000C9446000C9446000C94460048
:100020000C9446000C9446000C9446000C94FD0081
:100030000C9446000C9446000C9446000C94460028
:100040000C9446000C9446000C9446000C94460018
:100050000C9446000C9446000C9446000C94460008
:100060000C9446000C94460011241FBECFEFD8E03C
:10007000DEBFCDBF21E0A0E0B1E001C01D92A43001
:10008000B207E1F70E9435010C943B010C9400008B
:1000900087EC8093B30082E08093B00081E080938E
:1000A000B10040E050E00EC0B99BFECF22E027BB7C
:1000B000019602C080E090E0803223E09207A1F731
:1000C0004F5F5F4F4A305105A9F71092B100089574
:1000D000CF93DF9388B18170806188B9C0E0D0E0B0
:1000E00007C00E94480098B180E1892788B921960D
:1000F000CA30D105B1F7DF91CF91089584E294EF32
:1001000090938900809388008CE08093810082E046
:1001100080936F0008959FEF9AB984B18F6384B97B
:1001200087B197B90E947E0081E08DBB82E0809309
:100130006900089506C08CE085B988B1817080623D
:1001400088B98091020190910301853091059CF35B
:10015000059731F484E185B988B18170806288B9EE
:100160008091020190910301069731F484E285B9F0
:1001700088B18170806288B98091020190910301F9
:10018000079769F486E285B988B18170806288B981
:1001900006C081E285B988B18170806188B980919B
:1001A0000201909103018830910599F30D9721F494
:1001B00082E285B90E94680080910201909103015A
:1001C0000E9769F484E285B988B18170806288B93C
:1001D00006C084E385B988B18170806288B9809156
:1001E0000201909103018F30910599F3409721F41A
:1001F000109203011092020108951F920F920FB600
:100200000F9211248F939F9380910201909103018B
:10021000019690930301809302019F918F910F901B
:100220000FBE0F901F9018951F920F920FB60F924E
:1002300011248F939F938091000190910101019669
:100240009093010180930001039741F498B181E0FC
:10025000892788B910920101109200019F918F9116
:100260000F900FBE0F901F9018950E948B007894EE
:0A0270000E949A00FDCFF894FFCF22
:00000001FF
