S00D00006C616233632E7372656352
S11300000C9434000C9446000C9488010C94460023
S11300100C9446000C9446000C9446000C94460044
S11300200C9446000C9446000C9446000C94710108
S11300300C9446000C9446000C9446000C94460024
S11300400C9446000C9446000C9446000C94460014
S11300500C9446000C9446000C9446000C94460004
S11300600C9446000C94460011241FBECFEFD8E038
S1130070DEBFCDBF21E0A0E0B1E001C01D92A430FD
S1130080B207E1F70E94A2010C94A8010C940000AD
S113009087EC8093B30082E08093B00081E080938A
S11300A0B10040E050E00EC0B99BFECF22E027BB78
S11300B0019602C080E090E0803223E09207A1F72D
S11300C04F5F5F4F4A305105A9F71092B100089570
S11300D0CF93DF9388B18170806188B9C0E0D0E0AC
S11300E007C00E94480098B180E1892788B9219609
S11300F0CA30D105B1F7DF91CF91089584E294EF2E
S113010090938900809388008CE08093810082E042
S113011080936F0008959FEF9AB984B18F6384B977
S113012087B197B90E947E0082E08DBB88E08093FE
S11301306900089514C08091000190910101019714
S113014031F48CE085B988B18170806288B980917E
S1130150000190910101892B11F415B818B8809110
S1130160020190910301853091052CF30597A1F4C8
S11301708091000190910101019731F484E185B9E6
S113018088B18170806288B98091000190910101E9
S1130190892B11F415B818B88091020190910301CC
S11301A00697A1F48091000190910101019731F427
S11301B084E285B988B18170806288B98091000138
S11301C090910101892B11F415B818B8809102019E
S11301D090910301079749F58091000190910101E5
S11301E0019731F486E285B988B18170806288B95B
S11301F08091000190910101892BB9F415B818B8C8
S113020014C08091000190910101019731F481E2C1
S113021085B988B18170806188B98091000190911D
S11302200101892B11F415B818B88091020190913D
S113023003018830910529F30D97B1F480910001F1
S113024090910101019721F482E285B90E9468002E
S113025082E285B90E9468008091000190910101B9
S1130260892B11F415B818B88091020190910301FB
S11302700E9749F58091000190910101019731F4A5
S113028084E285B988B18170806288B98091000167
S113029090910101892BB9F415B818B814C0809154
S11302A0000190910101019731F484E385B988B18B
S11302B08170806288B98091000190910101892B3D
S11302C011F415B818B880910201909103018F3090
S11302D0910529F3409721F4109203011092020131
S11302E008951F920F920FB60F9211248F939F932C
S11302F080910201909103010196909303018093F0
S113030002019F918F910F900FBE0F901F9018952F
S11303101F920F920FB60F9211242F938F939F93D6
S1130320809100019091010121E0822790930101C5
S1130330809300019F918F912F910F900FBE0F908A
S11303401F9018950E948B0078940E949A00FDCF0C
S1070350F894FFCF4B
S9030000FC
